:100000000C945D000C947A000C947A000C947A00A5
:100010000C947A000C947A000C947A000C947A0078
:100020000C947A000C947A000C947A000C947A0068
:100030000C947A000C947A000C947A000C947A0058
:100040000C9493010C947A000C947A000C947A002E
:100050000C947A000C947A000C947A000C947A0038
:100060000C947A000C947A00000000002400270011
:100070002A0000000000250028002B0004040404CE
:100080000404040402020202020203030303030342
:10009000010204081020408001020408102001021F
:1000A00004081020000000080002010000030407FB
:1000B0000000000000000000410211241FBECFEF2D
:1000C000D8E0DEBFCDBF21E0A0E0B1E001C01D92CD
:1000D000AB30B207E1F710E0CDE5D0E004C02197E6
:1000E000FE010E944802CC35D107C9F70E94DD010C
:1000F0000C944E020C94000090E0FC01EC55FF4F74
:100100002491FC01E057FF4F3491FC01E458FF4F6C
:10011000E491EE2309F43CC0222339F1233091F01D
:1001200038F42130A9F0223001F584B58F7D12C05A
:10013000273091F02830A1F02430B9F4809180006C
:100140008F7D03C0809180008F77809380000DC0E9
:1001500084B58F7784BD09C08091B0008F7703C0CC
:100160008091B0008F7D8093B000F0E0EE0FFF1F14
:10017000EE58FF4FA591B4919FB7F894611104C058
:100180008C913095382302C0EC913E2B3C939FBF5D
:100190000895482F50E0FA01E057FF4F9491FA017B
:1001A000E458FF4F2491222399F030E0220F331FAF
:1001B000F901E859FF4FA591B491F901EE58FF4FAD
:1001C000259134912FB7F894EC91E92BEC932FBF44
:1001D0006115710511F460E004C06F3F710519F4F9
:1001E00061E00C947C00FA01EC55FF4FE491E330A0
:1001F000F9F048F4E130B9F0E230A1F584B580625D
:1002000084BD68BD0895E730E9F0E83019F1E430C5
:1002100049F58091800080628093800070938B000C
:1002200060938A00089584B5806884BD67BD089591
:100230008091800080688093800070938900609333
:10024000880008958091B00080688093B00060932A
:10025000B30008958091B00080628093B0006093F5
:10026000B4000895603871050CF0BACFB4CF3FB731
:10027000F8948091070190910801A0910901B09133
:100280000A0126B5A89B05C02F3F19F00196A11DB4
:10029000B11D3FBFBA2FA92F982F8827820F911D1C
:1002A000A11DB11DBC01CD0142E0660F771F881F63
:1002B000991F4A95D1F708958F929F92AF92BF925E
:1002C000CF92DF92EF92FF920E9437014B015C01C7
:1002D00088E0C82ED12CE12CF12C0E943701DC01E2
:1002E000CB0188199909AA09BB09883E9340A10549
:1002F000B10598F321E0C21AD108E108F10888EEAF
:10030000880E83E0981EA11CB11CC114D104E10425
:10031000F10419F7FF90EF90DF90CF90BF90AF906E
:100320009F908F9008951F920F920FB60F921124F5
:100330002F933F938F939F93AF93BF93809103012C
:1003400090910401A0910501B09106013091020144
:1003500023E0230F2D3720F40196A11DB11D05C008
:1003600026E8230F0296A11DB11D20930201809360
:10037000030190930401A0930501B09306018091BD
:10038000070190910801A0910901B0910A0101961D
:10039000A11DB11D8093070190930801A09309014D
:1003A000B0930A01BF91AF919F918F913F912F918F
:1003B0000F900FBE0F901F901895789484B58260AF
:1003C00084BD84B5816084BD85B5826085BD85B5F9
:1003D000816085BD80916E00816080936E00109277
:1003E00081008091810082608093810080918100F2
:1003F0008160809381008091800081608093800083
:100400008091B10084608093B1008091B0008160E0
:100410008093B00080917A00846080937A0080910C
:100420007A00826080937A0080917A008160809364
:100430007A0080917A00806880937A001092C100DF
:1004400000E010E0C0E0D0E0BE01809100010E9419
:10045000C9000E945C012196C11581E0D807A1F76F
:10046000CFEFD0E0BE01809100010E94C9000E9440
:100470005C012197B8F70115110521F30E940000D6
:10048000E1CF83E090E09093010180930001089513
:10049000EE0FFF1F0590F491E02D0994F894FFCF23
:00000001FF
